:100000000C9446000C9465000C9465000C946500FB
:100010000C9465000C9465000C9465000C946500CC
:100020000C9465000C9465000C9465000C946500BC
:100030000C9465000C94D9010C9465000C94650037
:100040000C9465000C9465000C9465000C9465009C
:100050000C9465000C9465000C9465000C9465008C
:100060000C9465000C9465000C9465000C9465007C
:100070000C9465000C9465000C9465000C9465006C
:100080000C9465000C9465000C94650011241FBE4F
:10009000CFEFD0E4DEBFCDBF11E0A0E0B1E0EEEBEA
:1000A000FDE000E00BBF02C007900D92AC36B10737
:1000B000D9F721E0ACE6B1E001C01D92A039B2074A
:1000C000E1F70E943D050C94DD060C940000CF93EF
:1000D000DF93CDB7DEB781E00E948E000000DF9194
:1000E000CF910895CF93DF93CDB7DEB784E690E04C
:1000F0000E94320188E30E948E0086E00E948E00FA
:100100008FE00E948E0081E00E948E008AE090E0E5
:100110000E9432010000DF91CF910895CF93DF93C9
:100120001F92CDB7DEB7898382E290E022E230E011
:10013000F90120812F7BFC01208388E290E0298156
:10014000FC01208382E290E022E230E0F90120818C
:100150002068FC012083000082E290E022E230E08F
:10016000F90120812F77FC01208382E090E00E943A
:10017000320100000F90DF91CF910895CF93DF936C
:100180001F92CDB7DEB7898382E290E022E230E0B1
:10019000F90120812064FC01208388E290E029811C
:1001A000FC01208382E290E022E230E0F90120812C
:1001B0002068FC012083000082E290E022E230E02F
:1001C000F90120812F77FC01208381E090E00E94DB
:1001D000320100000F90DF91CF910895CF93DF930C
:1001E00000D000D0CDB7DEB78A837C836B830E94BA
:1001F00067008A81898311C0898191E0980F998372
:100200000E941B018B819C819C012F5F3F4F3C838F
:100210002B83FC0180810E94BE008B819C81FC01AC
:100220008081882349F700000F900F900F900F9066
:10023000DF91CF910895CF93DF931F92CDB7DEB7B3
:1002400089838981813128F4898181580E948E00B7
:1002500004C0898181550E948E0000000F90DF91BB
:10026000CF910895CF93DF9300D000D000D0CDB7C9
:10027000DEB79E838D831A82198213C01C821B8273
:1002800006C000008B819C8101969C838B838B81AF
:100290009C8187309340ACF389819A8101969A833F
:1002A000898329813A818D819E812817390734F30A
:1002B000000026960FB6F894DEBF0FBECDBFDF91CB
:1002C000CF910895CF93DF9300D01F92CDB7DEB7C3
:1002D00089837B836A8389818A3031F48A819B8117
:1002E000BC018DE00E94620180EC90E0FC01808105
:1002F000882F90E080729927892BB1F386EC90E0EB
:100300002981FC01208380E090E00F900F900F90F6
:10031000DF91CF910895CF93DF93CDB7DEB781E81A
:1003200090E02BE0FC01208388E890E02DE730E0AE
:10033000FC01318320838FE690E022E0FC012083E2
:1003400084E890E0FC011182108280912601909156
:100350002701A0912801B091290180936D0190930C
:100360006E01A0936F01B09370018FE590E02FE5CF
:1003700030E0F90120812068FC0120830000DF913A
:10038000CF910895CF93DF93CDB7DEB781E890E0AA
:10039000FC0110820000DF91CF910895CF93DF938D
:1003A000CDB7DEB781E080936C010000DF91CF9183
:1003B00008951F920F9200905F000F9211240090F9
:1003C0005B000F922F933F934F935F936F937F93B5
:1003D0008F939F93AF93BF93EF93FF93CF93DF934D
:1003E000CDB7DEB780916D0190916E01A0916F0144
:1003F000B09170010197A109B10980936D019093AB
:100400006E01A0936F01B093700180916D01909186
:100410006E01A0916F01B0917001892B8A2B8B2BFB
:1004200091F40E94CE018091260190912701A09124
:100430002801B091290180936D0190936E01A093E2
:100440006F01B09370010000DF91CF91FF91EF91A8
:10045000BF91AF919F918F917F916F915F914F91DC
:100460003F912F910F9000925B000F9000925F00E0
:100470000F901F901895CF93DF9300D000D0CDB789
:10048000DEB769837A838B839C8389819A81AB8170
:10049000BC818093260190932701A0932801B093FB
:1004A00029018091260190912701A0912801B09106
:1004B000290180936D0190936E01A0936F01B09319
:1004C000700100000F900F900F900F90DF91CF916F
:1004D0000895CF93DF93CDB7DEB78AE790E02AE7A0
:1004E00030E0F9012081206EFC0120830000DF91C3
:1004F000CF910895CF93DF9300D0CDB7DEB78A8335
:100500008CE790E02A81FC012083198204C000005E
:1005100089818F5F898389818031C8F388E790E082
:10052000FC01808191810F900F90DF91CF91089510
:10053000CF93DF9300D01F92CDB7DEB781E090E07C
:100540009A8389832BC089819A810896880F880FA6
:10055000880F0E948E001B8219C089819A819C019C
:10056000215031098B81882F90E0220F331F220FF9
:10057000331F220F331F820F931F855B9E4FFC0199
:1005800080810E94BE008B818F5F8B838B8188303E
:1005900020F389819A8101969A83898389819A813E
:1005A000049788F280E80E948E0000000F900F9060
:1005B0000F90DF91CF910895CF93DF9300D000D0BB
:1005C00000D0CDB7DEB79E838D8381E00E947A0292
:1005D000909373018093720180E00E947A0290935D
:1005E0008E0180938D018D819E818230910509F469
:1005F0003EC1833091052CF4009779F00197B9F052
:1006000058C18430910509F410C1843091050CF46F
:100610003FC1059709F41AC14CC181E090E09E8367
:100620008D8387E080938F0110928A0142C180916F
:10063000720190917301883C9105B0F580918F0112
:10064000873090F580916301282F30E080918A01F6
:10065000882F90E0220F331F220F331F220F331FEA
:10066000820F931F855D9E4FFC0180818983898164
:10067000882F90E020918F01222F30E02F5F3F4F95
:1006800002C0959587952A95E2F781709927892B65
:1006900009F0C3C084E090E09E838D8380918F0138
:1006A0008F5F80938F01B9C0809172019091730127
:1006B00083359340B0F180918F01882391F180912F
:1006C0006301282F30E080918A01882F90E0220F6B
:1006D000331F220F331F220F331F820F931F855D9D
:1006E0009E4FFC0180818A838A81882F90E020912F
:1006F0008F01222F30E02150310902C09595879556
:100700002A95E2F781709927892B09F088C085E046
:1007100090E09E838D8380918F01815080938F0123
:100720007EC080918D0190918E01883C9105A8F545
:1007300080918A01882389F180916301282F30E01C
:1007400080918A01882F90E00197220F331F220F9A
:10075000331F220F331F820F931F855D9E4FFC01B5
:1007600080818B838B81882F90E020918F01222FB5
:1007700030E002C0959587952A95E2F78170992718
:10078000892B09F04EC082E090E09E838D8380919A
:100790008A01815080938A0144C080918D0190919B
:1007A0008E0183359340A0F180918A01873080F5D6
:1007B00080916301282F30E080918A01882F90E09A
:1007C0000196220F331F220F331F220F331F820F78
:1007D000931F855D9E4FFC0180818C838C81882FC7
:1007E00090E020918F01222F30E002C095958795EF
:1007F0002A95E2F781709927892BA9F483E090E08C
:100800009E838D8380918A018F5F80938A010BC0C4
:1008100081E090E09E838D834CC000004AC00000C0
:1008200048C0000046C0000044C080917201909111
:100830007301883C910528F484E090E09E838D83C9
:1008400038C081E090E09E838D8333C08091720137
:10085000909173018335934028F085E090E09E836A
:100860008D8327C081E090E09E838D8322C080919C
:100870008D0190918E01883C910528F482E090E0F2
:100880009E838D8316C081E090E09E838D8311C08E
:1008900080918D0190918E018335934028F083E003
:1008A00090E09E838D8304C081E090E09E838D83E1
:1008B00000008D819E8126960FB6F894DEBF0FBE94
:1008C000CDBFDF91CF910895CF93DF9300D000D0BB
:1008D0001F92CDB7DEB79D838C8390918A01809162
:1008E0007101981771F480918F01282F30E081E019
:1008F00090E002C0880F991F2A95E2F780958983BE
:1009000002C08FEF89831A8232C08981882F90E0DC
:1009100081709927892B51F085E290E025E230E043
:10092000F90120812160FC01208309C085E290E06B
:1009300025E230E0F90120812E7FFC01208385E251
:1009400090E025E230E0F90120812460FC01208361
:1009500085E290E025E230E0F90120812B7FFC0167
:1009600020838981869589838A818F5F8A838A81A2
:10097000883058F280916301282F30E08091710116
:10098000882F90E0220F331F220F331F220F331FB7
:10099000820F931F855D9E4FFC0180818095898326
:1009A0001B8232C08981882F90E081709927892B22
:1009B00051F085E290E025E230E0F90120812160EC
:1009C000FC01208309C085E290E025E230E0F901D6
:1009D00020812E7FFC01208385E290E025E230E03B
:1009E000F90120812460FC01208385E290E025E26A
:1009F00030E0F90120812B7FFC01208389818695DD
:100A000089838B818F5F8B838B81883058F28BE257
:100A100090E020917101422F50E021E030E002C0CF
:100A2000220F331F4A95E2F7FC01208385E290E014
:100A300025E230E0F90120812260FC01208385E27B
:100A400090E025E230E0F90120812D7FFC01208338
:100A5000809171018F5F8093710180917101883065
:100A600011F4109271018C819D810F900F900F9065
:100A70000F900F90DF91CF9108950F931F93CF9315
:100A8000DF9300D000D01F92CDB7DEB781E290E0B7
:100A900020EFFC01208382E290E02FE0FC01208324
:100AA00084E290E02FEFFC01208385E290E0FC01DE
:100AB000108287E290E02FEFFC01208388E290E033
:100AC000FC0110828AE290E02FEFFC0120838BE290
:100AD00090E0FC01108282E090E0A0E0B0E08A8328
:100AE0009B83AC83BD830E948B018A819B81AC81F7
:100AF000BD81BC01CD010E943B020E9472000E9498
:100B000098020E94670081E10E941B0181E00E941F
:100B1000BE0082E10E941B0182E00E94BE0083E1D0
:100B20000E941B0183E00E94BE000E94690219829C
:100B30008981282F30E04BE0429FC001439F900DF8
:100B400011248C589E4FFC0110828981282F30E09F
:100B50004BE0429FC001439F900D11249C012B58F4
:100B60003E4F88EC90E0A0E0B0E0F90180839183F3
:100B7000A283B3838981482F50E08981282F30E0F8
:100B80006BE0629FC001639F900D11248B589E4FB4
:100B9000FC0180819181A281B3816BE0649F90010F
:100BA000659F300D112427583E4FF90180839183B2
:100BB000A283B3838981282F30E04BE0429FC0019C
:100BC000439F900D112483589E4F2CED32E0FC0181
:100BD0003183208389818F5F89838981282F30E049
:100BE0004BE0429FC001439F900D11248C589E4FB3
:100BF000FC0110828981282F30E04BE0429FC00128
:100C0000439F900D11249C012B583E4F8A819B815C
:100C1000AC81BD81F90180839183A283B3838981F3
:100C2000482F50E08981282F30E06BE0629FC0019F
:100C3000639F900D11248B589E4FFC018081918100
:100C4000A281B3816BE0649F9001659F300D1124F8
:100C500027583E4FF90180839183A283B383898112
:100C6000282F30E04BE0429FC001439F900D11249C
:100C700083589E4F24E634E0FC013183208319829F
:100C80008EC08981282F30E04BE0429FC001439FF6
:100C9000900D112487589E4FFC01208131814281A3
:100CA00053818981682F70E0EBE0E69FC001E79FE8
:100CB000900D11248B589E4FFC0180819181A2815F
:100CC000B381281739074A075B07F0F18981082F9C
:100CD00010E08981282F30E04BE0429FC001439F04
:100CE000900D112483589E4FFC0120813181898110
:100CF000482F50E06BE0649FC001659F900D112468
:100D00008C589E4FFC018081082E000C990BF90134
:100D10000995382F2BE0209FC001219F900D1124B1
:100D20008C589E4FFC0130838981282F30E04BE0A6
:100D3000429FC001439F900D112487589E4FFC0194
:100D400010821182128213828981682F70E089815A
:100D5000282F30E04BE0429FC001439F900D1124AB
:100D600087589E4FFC0120813181428153818A81C5
:100D70009B81AC81BD81820F931FA41FB51F4BE0E7
:100D8000469F9001479F300D112427583E4FF9018F
:100D900080839183A283B38389818F5F89838091CC
:100DA0002A019981981708F46CCF000080916C019A
:0E0DB0008823E1F310926C0162CFF894FFCF1C
:100DBE000E1F11111F1F1F1B000A0A00110E00002B
:100DCE0003060C0F1E060C180000000200000000A7
:100DDE00620100000000010000000200000000009F
:100DEE000000000124242400423C82017514D61018
:100DFE0057515C086A2AEE08E24F000E1F11111FB0
:100E0E001F1F1B000A0A00110E000003060C0F1E06
:0C0E1E00060C18011008100810088110C4
:00000001FF
