:100000000C9446000C9465000C9465000C946500FB
:100010000C9465000C9465000C9465000C946500CC
:100020000C9465000C9465000C9465000C946500BC
:100030000C9465000C94D9010C9465000C94650037
:100040000C9465000C9465000C9465000C9465009C
:100050000C9465000C9465000C9465000C9465008C
:100060000C9465000C9465000C9465000C9465007C
:100070000C9465000C9465000C9465000C9465006C
:100080000C9465000C9465000C94650011241FBE4F
:10009000CFEFD0E4DEBFCDBF11E0A0E0B1E0ECEEE9
:1000A000FBE000E00BBF02C007900D92AC34B1073B
:1000B000D9F721E0ACE4B1E001C01D92AC36B20743
:1000C000E1F70E9445040C94F4050C940000CF93D2
:1000D000DF93CDB7DEB781E00E948E000000DF9194
:1000E000CF910895CF93DF93CDB7DEB784E690E04C
:1000F0000E94320188E30E948E0086E00E948E00FA
:100100008FE00E948E0081E00E948E008AE090E0E5
:100110000E9432010000DF91CF910895CF93DF93C9
:100120001F92CDB7DEB7898382E290E022E230E011
:10013000F90120812F7BFC01208388E290E0298156
:10014000FC01208382E290E022E230E0F90120818C
:100150002068FC012083000082E290E022E230E08F
:10016000F90120812F77FC01208382E090E00E943A
:10017000320100000F90DF91CF910895CF93DF936C
:100180001F92CDB7DEB7898382E290E022E230E0B1
:10019000F90120812064FC01208388E290E029811C
:1001A000FC01208382E290E022E230E0F90120812C
:1001B0002068FC012083000082E290E022E230E02F
:1001C000F90120812F77FC01208381E090E00E94DB
:1001D000320100000F90DF91CF910895CF93DF930C
:1001E00000D000D0CDB7DEB78A837C836B830E94BA
:1001F00067008A81898311C0898191E0980F998372
:100200000E941B018B819C819C012F5F3F4F3C838F
:100210002B83FC0180810E94BE008B819C81FC01AC
:100220008081882349F700000F900F900F900F9066
:10023000DF91CF910895CF93DF931F92CDB7DEB7B3
:1002400089838981813128F4898181580E948E00B7
:1002500004C0898181550E948E0000000F90DF91BB
:10026000CF910895CF93DF9300D000D000D0CDB7C9
:10027000DEB79E838D831A82198213C01C821B8273
:1002800006C000008B819C8101969C838B838B81AF
:100290009C8187309340ACF389819A8101969A833F
:1002A000898329813A818D819E812817390734F30A
:1002B000000026960FB6F894DEBF0FBECDBFDF91CB
:1002C000CF910895CF93DF9300D01F92CDB7DEB7C3
:1002D00089837B836A8389818A3031F48A819B8117
:1002E000BC018DE00E94620180EC90E0FC01808105
:1002F000882F90E080729927892BB1F386EC90E0EB
:100300002981FC01208380E090E00F900F900F90F6
:10031000DF91CF910895CF93DF93CDB7DEB781E81A
:1003200090E02BE0FC01208388E890E02DE730E0AE
:10033000FC01318320838FE690E022E0FC012083E2
:1003400084E890E0FC011182108280912601909156
:100350002701A0912801B091290180934D0190932C
:100360004E01A0934F01B09350018FE590E02FE52F
:1003700030E0F90120812068FC0120830000DF913A
:10038000CF910895CF93DF93CDB7DEB781E890E0AA
:10039000FC0110820000DF91CF910895CF93DF938D
:1003A000CDB7DEB781E080934C010000DF91CF91A3
:1003B00008951F920F9200905F000F9211240090F9
:1003C0005B000F922F933F934F935F936F937F93B5
:1003D0008F939F93AF93BF93EF93FF93CF93DF934D
:1003E000CDB7DEB780914D0190914E01A0914F01A4
:1003F000B09150010197A109B10980934D019093EB
:100400004E01A0934F01B093500180914D01909106
:100410004E01A0914F01B0915001892B8A2B8B2B5B
:1004200091F40E94CE018091260190912701A09124
:100430002801B091290180934D0190934E01A09322
:100440004F01B09350010000DF91CF91FF91EF91E8
:10045000BF91AF919F918F917F916F915F914F91DC
:100460003F912F910F9000925B000F9000925F00E0
:100470000F901F901895CF93DF9300D000D0CDB789
:10048000DEB769837A838B839C8389819A81AB8170
:10049000BC818093260190932701A0932801B093FB
:1004A00029018091260190912701A0912801B09106
:1004B000290180934D0190934E01A0934F01B09379
:1004C000500100000F900F900F900F90DF91CF918F
:1004D0000895CF93DF93CDB7DEB78AE790E02AE7A0
:1004E00030E0F9012081206EFC0120830000DF91C3
:1004F000CF910895CF93DF9300D0CDB7DEB78A8335
:100500008CE790E02A81FC012083198204C000005E
:1005100089818F5F898389818A30C8F388E790E079
:10052000FC01808191810F900F90DF91CF91089510
:10053000CF93DF9300D01F92CDB7DEB781E090E07C
:100540009A8389832BC089819A810896880F880FA6
:10055000880F0E948E001B8219C089819A819C019C
:10056000215031098B81882F90E0220F331F220FF9
:10057000331F220F331F820F931F855D9E4FFC0197
:1005800080810E94BE008B818F5F8B838B8188303E
:1005900020F389819A8101969A83898389819A813E
:1005A000049788F280E80E948E0000000F900F9060
:1005B0000F90DF91CF910895CF93DF9300D000D0BB
:1005C000CDB7DEB79C838B8381E00E947A02909343
:1005D00053018093520180E00E947A0290936B0154
:1005E00080936A0180916A0190916B012FEF33E053
:1005F000A901481B590BCA0190936B0180936A01B2
:1006000019823CC098E08981592F581B852F0E9480
:100610001B0140915201509153019A01ADECBCEC89
:100620000E94E50596958795969587959695879569
:10063000880F991F9C01220F331F220F331F820F37
:10064000931F9A01281B390BC901805D0E94BE00CF
:1006500080915201909153019C01ADECBCEC0E9441
:10066000E5059695879596958795969587959093A8
:1006700053018093520189818F5F898389818430FE
:1006800008F21A823CC090E18A81392F381B832FEF
:100690000E941B0140916A0150916B019A01ADECDF
:1006A000BCEC0E94E505969587959695879596955D
:1006B0008795880F991F9C01220F331F220F331F2C
:1006C000820F931F9A01281B390BC901805D0E947C
:1006D000BE0080916A0190916B019C01ADECBCEC75
:1006E0000E94E505969587959695879596958795A9
:1006F00090936B0180936A018A818F5F8A838A81DC
:10070000843008F280E20E941B018B819C810F9053
:100710000F900F900F90DF91CF910895CF93DF93BB
:1007200000D000D000D0CDB7DEB79E838D838091FE
:100730005101882F90E08D5B9E4FFC018081809558
:100740008C8380915101282F30E081E090E002C03D
:10075000880F991F2A95E2F789831A8232C089810E
:10076000882F90E081709927892B51F085E290E0E5
:1007700025E230E0F90120812160FC01208309C0DD
:1007800085E290E025E230E0F90120812E7FFC0136
:10079000208385E290E025E230E0F90120812460A9
:1007A000FC01208385E290E025E230E0F901208120
:1007B0002B7FFC0120838981869589838A818F5FC5
:1007C0008A838A81883058F28C8189831B8232C067
:1007D0008981882F90E081709927892B51F085E2DB
:1007E00090E025E230E0F90120812160FC012083C6
:1007F00009C085E290E025E230E0F90120812E7FFA
:10080000FC01208385E290E025E230E0F9012081BF
:100810002460FC01208385E290E025E230E0F901CC
:1008200020812B7FFC0120838981869589838B81A0
:100830008F5F8B838B81883058F285E290E025E2D0
:1008400030E0F90120812260FC01208385E290E004
:1008500025E230E0F90120812D7FFC012083809189
:1008600051018F5F8093510180915101883011F4C3
:10087000109251018D819E8126960FB6F894DEBFAD
:100880000FBECDBFDF91CF9108950F931F93CF93EC
:10089000DF9300D000D01F92CDB7DEB781E290E0A9
:1008A00020EFFC01208382E290E02FE0FC01208316
:1008B00084E290E02FEFFC01208385E290E0FC01D0
:1008C000108287E290E02FEFFC01208388E290E025
:1008D000FC0110828AE290E02FEFFC0120838BE282
:1008E00090E0FC01108281E090E0A0E0B0E08A831B
:1008F0009B83AC83BD830E948B018A819B81AC81E9
:10090000BD81BC01CD010E943B020E9472000E9489
:1009100098020E94670081E10E941B0181E00E9411
:10092000BE0082E10E941B0182E00E94BE0083E1C2
:100930000E941B0183E00E94BE000E94690219828E
:100940008981282F30E04BE0429FC001439F900DEA
:1009500011248C5A9E4FFC0110828981282F30E08F
:100960004BE0429FC001439F900D11249C012B5AE4
:100970003E4F88EC90E0A0E0B0E0F90180839183E5
:10098000A283B3838981482F50E08981282F30E0EA
:100990006BE0629FC001639F900D11248B5A9E4FA4
:1009A000FC0180819181A281B3816BE0649F900101
:1009B000659F300D1124275A3E4FF90180839183A2
:1009C000A283B3838981282F30E04BE0429FC0018E
:1009D000439F900D1124835A9E4F2CED32E0FC0171
:1009E0003183208389818F5F89838981282F30E03B
:1009F0004BE0429FC001439F900D11248C5A9E4FA3
:100A0000FC0110828981282F30E04BE0429FC00119
:100A1000439F900D11249C012B5A3E4F82E090E0A1
:100A2000A0E0B0E0F90180839183A283B383898140
:100A3000482F50E08981282F30E06BE0629FC00191
:100A4000639F900D11248B5A9E4FFC0180819181F0
:100A5000A281B3816BE0649F9001659F300D1124EA
:100A6000275A3E4FF90180839183A283B383898102
:100A7000282F30E04BE0429FC001439F900D11248E
:100A8000835A9E4F2EE833E0FC0131832083198284
:100A90008EC08981282F30E04BE0429FC001439FE8
:100AA000900D1124875A9E4FFC0120813181428193
:100AB00053818981682F70E0EBE0E69FC001E79FDA
:100AC000900D11248B5A9E4FFC0180819181A2814F
:100AD000B381281739074A075B07F0F18981082F8E
:100AE00010E08981282F30E04BE0429FC001439FF6
:100AF000900D1124835A9E4FFC0120813181898100
:100B0000482F50E06BE0649FC001659F900D112459
:100B10008C5A9E4FFC018081082E000C990BF90124
:100B20000995382F2BE0209FC001219F900D1124A3
:100B30008C5A9E4FFC0130838981282F30E04BE096
:100B4000429FC001439F900D1124875A9E4FFC0184
:100B500010821182128213828981682F70E089814C
:100B6000282F30E04BE0429FC001439F900D11249D
:100B7000875A9E4FFC0120813181428153818A81B5
:100B80009B81AC81BD81820F931FA41FB51F4BE0D9
:100B9000469F9001479F300D1124275A3E4FF9017F
:100BA00080839183A283B38389818F5F89838091BE
:100BB0002A019981981708F46CCF000080914C01AC
:100BC0008823E1F310924C0162CFA29FB001B39F42
:100BD000C001A39F700D811D1124911DB29F700D46
:0C0BE000811D1124911D0895F894FFCF91
:100BEC000E1F11111F1F1F1B000A0A00110E0000FF
:100BFC0003060C0F1E060C1800000002000000007B
:100C0C0062010000000001000000020E1F11111F04
:100C1C001F1F1B000A0A00110E000003060C0F1EFA
:0C0C2C00060C188124242400423C8100A6
:00000001FF
