:100000000C9446000C9465000C9465000C946500FB
:100010000C9465000C9465000C9465000C946500CC
:100020000C9465000C9465000C9465000C946500BC
:100030000C9465000C94D9010C9465000C94650037
:100040000C9465000C9465000C9465000C9465009C
:100050000C9465000C9465000C9465000C9465008C
:100060000C9465000C9465000C9465000C9465007C
:100070000C9465000C9465000C9465000C9465006C
:100080000C9465000C9465000C94650011241FBE4F
:10009000CFEFD0E4DEBFCDBF11E0A0E0B1E0EAEDEC
:1000A000F1E100E00BBF02C007900D92AA39B10741
:1000B000D9F721E0AAE9B1E001C01D92A93DB2073C
:1000C000E1F70E949D060C94EB080C940000CF937E
:1000D000DF93CDB7DEB781E00E948E000000DF9194
:1000E000CF910895CF93DF93CDB7DEB784E690E04C
:1000F0000E94320188E30E948E0086E00E948E00FA
:100100008FE00E948E0081E00E948E008AE090E0E5
:100110000E9432010000DF91CF910895CF93DF93C9
:100120001F92CDB7DEB7898382E290E022E230E011
:10013000F90120812F7BFC01208388E290E0298156
:10014000FC01208382E290E022E230E0F90120818C
:100150002068FC012083000082E290E022E230E08F
:10016000F90120812F77FC01208382E090E00E943A
:10017000320100000F90DF91CF910895CF93DF936C
:100180001F92CDB7DEB7898382E290E022E230E0B1
:10019000F90120812064FC01208388E290E029811C
:1001A000FC01208382E290E022E230E0F90120812C
:1001B0002068FC012083000082E290E022E230E02F
:1001C000F90120812F77FC01208381E090E00E94DB
:1001D000320100000F90DF91CF910895CF93DF930C
:1001E00000D000D0CDB7DEB78A837C836B830E94BA
:1001F00067008A81898311C0898191E0980F998372
:100200000E941B018B819C819C012F5F3F4F3C838F
:100210002B83FC0180810E94BE008B819C81FC01AC
:100220008081882349F700000F900F900F900F9066
:10023000DF91CF910895CF93DF931F92CDB7DEB7B3
:1002400089838981813128F4898181580E948E00B7
:1002500004C0898181550E948E0000000F90DF91BB
:10026000CF910895CF93DF9300D000D000D0CDB7C9
:10027000DEB79E838D831A82198213C01C821B8273
:1002800006C000008B819C8101969C838B838B81AF
:100290009C8187309340ACF389819A8101969A833F
:1002A000898329813A818D819E812817390734F30A
:1002B000000026960FB6F894DEBF0FBECDBFDF91CB
:1002C000CF910895CF93DF9300D01F92CDB7DEB7C3
:1002D00089837B836A8389818A3031F48A819B8117
:1002E000BC018DE00E94620180EC90E0FC01808105
:1002F000882F90E080729927892BB1F386EC90E0EB
:100300002981FC01208380E090E00F900F900F90F6
:10031000DF91CF910895CF93DF93CDB7DEB781E81A
:1003200090E02BE0FC01208388E890E02DE730E0AE
:10033000FC01318320838FE690E022E0FC012083E2
:1003400084E890E0FC011182108280912601909156
:100350002701A0912801B091290180939B019093DE
:100360009C01A0939D01B0939E018FE590E02FE545
:1003700030E0F90120812068FC0120830000DF913A
:10038000CF910895CF93DF93CDB7DEB781E890E0AA
:10039000FC0110820000DF91CF910895CF93DF938D
:1003A000CDB7DEB781E080939A010000DF91CF9155
:1003B00008951F920F9200905F000F9211240090F9
:1003C0005B000F922F933F934F935F936F937F93B5
:1003D0008F939F93AF93BF93EF93FF93CF93DF934D
:1003E000CDB7DEB780919B0190919C01A0919D01BA
:1003F000B0919E010197A109B10980939B0190934F
:100400009C01A0939D01B0939E0180919B019091CE
:100410009C01A0919D01B0919E01892B8A2B8B2B71
:1004200091F40E94CE018091260190912701A09124
:100430002801B091290180939B0190939C01A09386
:100440009D01B0939E010000DF91CF91FF91EF914C
:10045000BF91AF919F918F917F916F915F914F91DC
:100460003F912F910F9000925B000F9000925F00E0
:100470000F901F901895CF93DF9300D000D0CDB789
:10048000DEB769837A838B839C8389819A81AB8170
:10049000BC818093260190932701A0932801B093FB
:1004A00029018091260190912701A0912801B09106
:1004B000290180939B0190939C01A0939D01B0938F
:1004C0009E0100000F900F900F900F90DF91CF9141
:1004D0000895CF93DF93CDB7DEB78AE790E02AE7A0
:1004E00030E0F9012081206EFC0120830000DF91C3
:1004F000CF910895CF93DF9300D0CDB7DEB78A8335
:100500008CE790E02A81FC012083198204C000005E
:1005100089818F5F898389818A30C8F388E790E079
:10052000FC01808191810F900F90DF91CF91089510
:10053000CF93DF9300D01F92CDB7DEB781E090E07C
:100540009A8389832BC089819A810896880F880FA6
:10055000880F0E948E001B8219C089819A819C019C
:10056000215031098B81882F90E0220F331F220FF9
:10057000331F220F331F820F931F8D5B9E4FFC0191
:1005800080810E94BE008B818F5F8B838B8188303E
:1005900020F389819A8101969A83898389819A813E
:1005A000049788F280E80E948E0000000F900F9060
:1005B0000F90DF91CF910895CF93DF93CDB7DEB742
:1005C0008DE10E941B019091D5018DEC989F812DAA
:1005D0001124869586958695805D0E94BE008EE1E9
:1005E0000E941B019091D5018DEC989F812D1124C3
:1005F000869586958695880F282F220F220F820FC9
:10060000292F281B822F805D0E94BE000000DF91F1
:10061000CF910895CF93DF9300D0CDB7DEB79A8303
:10062000898389819A818130910529F182309105F0
:10063000D9F1892B09F0C1C081E090E09A838983C8
:100640001092D30110929F0181E08093D4018FE535
:1006500090E00E94D5088093D5018091D5018F311B
:1006600010F01092D5016BE571E081E00E94EE0080
:100670000E94DC02A2C080E290E0FC018081882F11
:1006800090E088709927892B51F482E090E09A835A
:10069000898381E08093D3011092D4018EC081E0E0
:1006A00090E09A83898389C080E290E0FC01808198
:1006B000882F90E084709927892BD9F481E090E00D
:1006C0009A8389831092D30187E08093D801109296
:1006D000D00181E08093D40110929F018EE180933C
:1006E000A0016BE571E081E00E94EE000E94DC0257
:1006F00063C080919F018230B0F110929F01809180
:10070000A0019091D501981774F48091A001082E52
:10071000000C990BBC018FE590E00E94DD088091F0
:10072000A0018093D5010E94670069E771E081E034
:100730000E94EE008AE00E941B0181E00E94BE0040
:100740008BE00E941B0183E00E94BE0081E0809349
:10075000D4011092D30163E871E081E00E94EE00C1
:100760000E94DC0229C08091A00118169CF00E9412
:10077000670060E971E081E00E94EE008AE00E947B
:100780001B0182E00E94BE0081E08093D4011092A0
:10079000D30112C08091D801882371F48091D001D7
:1007A000873051F480919F018F5F80939F0187E094
:1007B0008093D8011092D001000089819A810F9016
:1007C0000F90DF91CF910895CF93DF9300D0CDB7F5
:1007D000DEB79A83898389819A818130910569F096
:1007E0008230910509F1892B61F58EE18093A0019A
:1007F00081E090E09A83898324C08091D30188238B
:1008000021F48EE18093A0011CC08091D401882343
:1008100031F48091A00181508093A00112C082E048
:1008200090E09A8389830DC08091D401882329F0B8
:1008300082E090E09A83898303C08EE18093A001D7
:10084000000089819A810F900F90DF91CF910895D8
:10085000CF93DF9300D000D000D0CDB7DEB79E831A
:100860008D838091D301882379F081E00E947A0200
:100870009093A3018093A20180E00E947A0290935A
:10088000D7018093D6010EC084EF91E09093D701F9
:100890008093D6018091D6019091D7019093A301C6
:1008A0008093A2018D819E818230910509F43EC121
:1008B000833091052CF4009779F00197B9F058C175
:1008C0008430910509F410C1843091050CF43FC1C6
:1008D000059709F41AC14CC181E090E09E838D8395
:1008E00087E08093D8011092D00142C18091A2018B
:1008F0009091A301883C9105B0F58091D801873093
:1009000090F580919F01282F30E08091D001882FB1
:1009100090E0220F331F220F331F220F331F820F4D
:10092000931F855D9E4FFC01808189838981882F7B
:1009300090E02091D801222F30E02F5F3F4F02C07E
:10094000959587952A95E2F781709927892B09F06B
:10095000C3C084E090E09E838D838091D8018F5F37
:100960008093D801B9C08091A2019091A3018335F1
:100970009340B0F18091D801882391F180919F013B
:10098000282F30E08091D001882F90E0220F331F74
:10099000220F331F220F331F820F931F855D9E4F3F
:1009A000FC0180818A838A81882F90E02091D80180
:1009B000222F30E02150310902C0959587952A9564
:1009C000E2F781709927892B09F088C085E090E0D3
:1009D0009E838D838091D80181508093D8017EC001
:1009E0008091D6019091D701883C9105A8F580911E
:1009F000D001882389F180919F01282F30E08091D8
:100A0000D001882F90E00197220F331F220F331F50
:100A1000220F331F820F931F855D9E4FFC01808143
:100A20008B838B81882F90E02091D801222F30E09A
:100A300002C0959587952A95E2F781709927892BB1
:100A400009F04EC082E090E09E838D838091D001BA
:100A500081508093D00144C08091D6019091D701FC
:100A600083359340A0F18091D001873080F580914B
:100A70009F01282F30E08091D001882F90E00196CF
:100A8000220F331F220F331F220F331F820F931F9A
:100A9000855D9E4FFC0180818C838C81882F90E046
:100AA0002091D801222F30E002C0959587952A9594
:100AB000E2F781709927892BA9F483E090E09E8367
:100AC0008D838091D0018F5F8093D0010BC081E036
:100AD00090E09E838D834CC000004AC0000048C057
:100AE000000046C0000044C08091A2019091A30183
:100AF000883C910528F484E090E09E838D8338C083
:100B000081E090E09E838D8333C08091A20190911B
:100B1000A3018335934028F085E090E09E838D8388
:100B200027C081E090E09E838D8322C08091D60112
:100B30009091D701883C910528F482E090E09E8353
:100B40008D8316C081E090E09E838D8311C08091DB
:100B5000D6019091D7018335934028F083E090E04F
:100B60009E838D8304C081E090E09E838D8300008E
:100B70008D819E8126960FB6F894DEBF0FBECDBF45
:100B8000DF91CF910895CF93DF9300D000D01F92D3
:100B9000CDB7DEB79D838C839091D0018091A10168
:100BA000981769F48091D801282F30E081E090E017
:100BB00002C0880F991F2A95E2F7898301C0198224
:100BC0008981809589831A8232C08981882F90E03B
:100BD00081709927892B51F085E290E025E230E081
:100BE000F90120812160FC01208309C085E290E0A9
:100BF00025E230E0F90120812E7FFC01208385E28F
:100C000090E025E230E0F90120812460FC0120839E
:100C100085E290E025E230E0F90120812B7FFC01A4
:100C200020838981869589838A818F5F8A838A81DF
:100C3000883058F280919F01282F30E08091A101E7
:100C4000882F90E0220F331F220F331F220F331FF4
:100C5000820F931F855D9E4FFC0180818095898363
:100C60001B8232C08981882F90E081709927892B5F
:100C700051F085E290E025E230E0F9012081216029
:100C8000FC01208309C085E290E025E230E0F90113
:100C900020812E7FFC01208385E290E025E230E078
:100CA000F90120812460FC01208385E290E025E2A7
:100CB00030E0F90120812B7FFC012083898186951A
:100CC00089838B818F5F8B838B81883058F28BE295
:100CD00090E02091A101422F50E021E030E002C0DD
:100CE000220F331F4A95E2F7FC01208385E290E052
:100CF00025E230E0F90120812260FC01208385E2B9
:100D000090E025E230E0F90120812D7FFC01208375
:100D10008091A1018F5F8093A1018091A101883012
:100D200011F41092A1018C819D810F900F900F9072
:100D30000F900F90DF91CF9108950F931F93CF9352
:100D4000DF9300D000D01F92CDB7DEB781E290E0F4
:100D500020EFFC01208382E290E02FE0FC01208361
:100D600084E290E02FEFFC01208385E290E0FC011B
:100D7000108287E290E02FEFFC01208388E290E070
:100D8000FC0110828AE290E02FEFFC0120838BE2CD
:100D900090E0FC01108282E090E0A0E0B0E08A8365
:100DA0009B83AC83BD830E948B018A819B81AC8134
:100DB000BD81BC01CD010E943B020E9472000E94D5
:100DC00098020E9467000E94690219828981282F77
:100DD00030E04BE0429FC001439F900D11248C55A1
:100DE0009E4FFC0110828981282F30E04BE0429F0A
:100DF000C001439F900D11249C012B553E4F84E66A
:100E000090E0A0E0B0E0F90180839183A283B383F6
:100E10008981482F50E08981282F30E06BE0629F64
:100E2000C001639F900D11248B559E4FFC01808162
:100E30009181A281B3816BE0649F9001659F300D29
:100E4000112427553E4FF90180839183A283B383F8
:100E50008981282F30E04BE0429FC001439F900DD5
:100E6000112483559E4F2AE033E0FC013183208317
:100E700089818F5F89838981282F30E04BE0429FF1
:100E8000C001439F900D11248C559E4FFC01108290
:100E90008981282F30E04BE0429FC001439F900D95
:100EA00011249C012B553E4F88EE93E0A0E0B0E06A
:100EB000F90180839183A283B3838981482F50E015
:100EC0008981282F30E06BE0629FC001639F900D05
:100ED00011248B559E4FFC0180819181A281B381A9
:100EE0006BE0649F9001659F300D112427553E4FA4
:100EF000F90180839183A283B3838981282F30E015
:100F00004BE0429FC001439F900D112483559E4F9B
:100F100024EE33E0FC013183208389818F5F898354
:100F20008981282F30E04BE0429FC001439F900D04
:100F300011248C559E4FFC0110828981282F30E0AE
:100F40004BE0429FC001439F900D11249C012B5503
:100F50003E4F86E990E0A0E0B0E0F9018083918304
:100F6000A283B3838981482F50E08981282F30E004
:100F70006BE0629FC001639F900D11248B559E4FC3
:100F8000FC0180819181A281B3816BE0649F90011B
:100F9000659F300D112427553E4FF90180839183C1
:100FA000A283B3838981282F30E04BE0429FC001A8
:100FB000439F900D112483559E4F28E234E0FC019D
:100FC0003183208389818F5F89838981282F30E055
:100FD0004BE0429FC001439F900D11248C559E4FC2
:100FE000FC0110828981282F30E04BE0429FC00134
:100FF000439F900D11249C012B553E4F8A819B816C
:10100000AC81BD81F90180839183A283B3838981FF
:10101000482F50E08981282F30E06BE0629FC001AB
:10102000639F900D11248B559E4FFC01808191810F
:10103000A281B3816BE0649F9001659F300D112404
:1010400027553E4FF90180839183A283B383898121
:10105000282F30E04BE0429FC001439F900D1124A8
:1010600083559E4F23EC35E0FC01318320831982A8
:101070008EC08981282F30E04BE0429FC001439F02
:10108000900D112487559E4FFC01208131814281B2
:1010900053818981682F70E0EBE0E69FC001E79FF4
:1010A000900D11248B559E4FFC0180819181A2816E
:1010B000B381281739074A075B07F0F18981082FA8
:1010C00010E08981282F30E04BE0429FC001439F10
:1010D000900D112483559E4FFC012081318189811F
:1010E000482F50E06BE0649FC001659F900D112474
:1010F0008C559E4FFC018081082E000C990BF90144
:101100000995382F2BE0209FC001219F900D1124BD
:101110008C559E4FFC0130838981282F30E04BE0B5
:10112000429FC001439F900D112487559E4FFC01A3
:1011300010821182128213828981682F70E0898166
:10114000282F30E04BE0429FC001439F900D1124B7
:1011500087559E4FFC0120813181428153818A81D4
:101160009B81AC81BD81820F931FA41FB51F4BE0F3
:10117000469F9001479F300D112427553E4FF9019E
:1011800080839183A283B38389818F5F89838091D8
:101190002A019981981708F46CCF000080919A0178
:1011A0008823E1F310929A0162CFF999FECF92BDA4
:1011B00081BDF89A992780B50895262FF999FECF19
:1011C0001FBA92BD81BD20BD0FB6F894FA9AF99A64
:0A11D0000FBE01960895F894FFCFBA
:1011DA000E1F11111F1F1F1B000A0A00110E00000B
:1011EA0003060C0F1E060C18000000020000000087
:1011FA006201000000000100000004017514D6100D
:10120A0057515C086A2AEE08E24F000024242400A1
:10121A00423C000E1F11111F1F1F1B000A0A000E5D
:10122A0011000003060C0F1E060C184C3A53746189
:10123A0072742C523A526573657420204869676843
:10124A002053636F72653A2000596F752057696E93
:10125A00212100486967682053636F72653A20004C
:0A126A00596F75204C6F7365210069
:00000001FF
