:100000000C9446000C9465000C9465000C946500FB
:100010000C9465000C9465000C9465000C946500CC
:100020000C9465000C9465000C9465000C946500BC
:100030000C9465000C94D9010C9465000C94650037
:100040000C9465000C9465000C9465000C9465009C
:100050000C9465000C9465000C9465000C9465008C
:100060000C9465000C9465000C9465000C9465007C
:100070000C9465000C9465000C9465000C9465006C
:100080000C9465000C9465000C94650011241FBE4F
:10009000CFEFD0E4DEBFCDBF11E0A0E0B1E0E6EDF0
:1000A000F1E100E00BBF02C007900D92A43BB10745
:1000B000D9F721E0A4EBB1E001C01D92A33FB20744
:1000C000E1F70E949B060C94E9080C940000CF9382
:1000D000DF93CDB7DEB781E00E948E000000DF9194
:1000E000CF910895CF93DF93CDB7DEB784E690E04C
:1000F0000E94320188E30E948E0086E00E948E00FA
:100100008FE00E948E0081E00E948E008AE090E0E5
:100110000E9432010000DF91CF910895CF93DF93C9
:100120001F92CDB7DEB7898382E290E022E230E011
:10013000F90120812F7BFC01208388E290E0298156
:10014000FC01208382E290E022E230E0F90120818C
:100150002068FC012083000082E290E022E230E08F
:10016000F90120812F77FC01208382E090E00E943A
:10017000320100000F90DF91CF910895CF93DF936C
:100180001F92CDB7DEB7898382E290E022E230E0B1
:10019000F90120812064FC01208388E290E029811C
:1001A000FC01208382E290E022E230E0F90120812C
:1001B0002068FC012083000082E290E022E230E02F
:1001C000F90120812F77FC01208381E090E00E94DB
:1001D000320100000F90DF91CF910895CF93DF930C
:1001E00000D000D0CDB7DEB78A837C836B830E94BA
:1001F00067008A81898311C0898191E0980F998372
:100200000E941B018B819C819C012F5F3F4F3C838F
:100210002B83FC0180810E94BE008B819C81FC01AC
:100220008081882349F700000F900F900F900F9066
:10023000DF91CF910895CF93DF931F92CDB7DEB7B3
:1002400089838981813128F4898181580E948E00B7
:1002500004C0898181550E948E0000000F90DF91BB
:10026000CF910895CF93DF9300D000D000D0CDB7C9
:10027000DEB79E838D831A82198213C01C821B8273
:1002800006C000008B819C8101969C838B838B81AF
:100290009C8187309340ACF389819A8101969A833F
:1002A000898329813A818D819E812817390734F30A
:1002B000000026960FB6F894DEBF0FBECDBFDF91CB
:1002C000CF910895CF93DF9300D01F92CDB7DEB7C3
:1002D00089837B836A8389818A3031F48A819B8117
:1002E000BC018DE00E94620180EC90E0FC01808105
:1002F000882F90E080729927892BB1F386EC90E0EB
:100300002981FC01208380E090E00F900F900F90F6
:10031000DF91CF910895CF93DF93CDB7DEB781E81A
:1003200090E02BE0FC01208388E890E02DE730E0AE
:10033000FC01318320838FE690E022E0FC012083E2
:1003400084E890E0FC011182108280912601909156
:100350002701A0912801B09129018093B5019093C4
:10036000B601A093B701B093B8018FE590E02FE5F7
:1003700030E0F90120812068FC0120830000DF913A
:10038000CF910895CF93DF93CDB7DEB781E890E0AA
:10039000FC0110820000DF91CF910895CF93DF938D
:1003A000CDB7DEB781E08093B4010000DF91CF913B
:1003B00008951F920F9200905F000F9211240090F9
:1003C0005B000F922F933F934F935F936F937F93B5
:1003D0008F939F93AF93BF93EF93FF93CF93DF934D
:1003E000CDB7DEB78091B5019091B601A091B7016C
:1003F000B091B8010197A109B1098093B50190931B
:10040000B601A093B701B093B8018091B501909166
:10041000B601A091B701B091B801892B8A2B8B2B23
:1004200091F40E94CE018091260190912701A09124
:100430002801B09129018093B5019093B601A09352
:10044000B701B093B8010000DF91CF91FF91EF9118
:10045000BF91AF919F918F917F916F915F914F91DC
:100460003F912F910F9000925B000F9000925F00E0
:100470000F901F901895CF93DF9300D000D0CDB789
:10048000DEB769837A838B839C8389819A81AB8170
:10049000BC818093260190932701A0932801B093FB
:1004A00029018091260190912701A0912801B09106
:1004B00029018093B5019093B601A093B701B09341
:1004C000B80100000F900F900F900F90DF91CF9127
:1004D0000895CF93DF93CDB7DEB78AE790E02AE7A0
:1004E00030E0F9012081206EFC0120830000DF91C3
:1004F000CF910895CF93DF9300D0CDB7DEB78A8335
:100500008CE790E02A81FC012083198204C000005E
:1005100089818F5F898389818A30C8F388E790E079
:10052000FC01808191810F900F90DF91CF91089510
:10053000CF93DF9300D01F92CDB7DEB781E090E07C
:100540009A8389832BC089819A810896880F880FA6
:10055000880F0E948E001B8219C089819A819C019C
:10056000215031098B81882F90E0220F331F220FF9
:10057000331F220F331F820F931F855B9E4FFC0199
:1005800080810E94BE008B818F5F8B838B8188303E
:1005900020F389819A8101969A83898389819A813E
:1005A000049788F280E80E948E0000000F900F9060
:1005B0000F90DF91CF910895CF93DF93CDB7DEB742
:1005C0008DE10E941B019091EF018DEC989F812D90
:1005D0001124869586958695805D0E94BE008EE1E9
:1005E0000E941B019091EF018DEC989F812D1124A9
:1005F000869586958695880F282F220F220F820FC9
:10060000292F281B822F805D0E94BE000000DF91F1
:10061000CF910895CF93DF9300D0CDB7DEB79A8303
:10062000898389819A818130910529F182309105F0
:10063000D9F1892B09F0BFC081E090E09A838983CA
:100640001092ED011092B90181E08093EE018FE5E7
:1006500090E00E94D3088093EF018091EF018531F3
:1006600010F01092EF0163E671E081E00E94EE006D
:100670000E94DC02A0C080E290E0FC018081882F13
:1006800090E088709927892B51F482E090E09A835A
:10069000898381E08093ED011092EE018CC081E0AE
:1006A00090E09A83898387C080E290E0FC0180819A
:1006B000882F90E084709927892BD9F481E090E00D
:1006C0009A8389831092ED0187E08093F201109262
:1006D000EA0181E08093EE011092B90184E18093F8
:1006E000BA0163E671E081E00E94EE000E94DC0244
:1006F00061C08091B9018230A1F51092B901809159
:10070000BA019091EF01981774F48091BA01082E04
:10071000000C990BBC018FE590E00E94DB088091F2
:10072000BA018093EF010E94670081E08093EE019F
:100730001092ED0161E871E083E00E94EE000E94FA
:10074000DC0281E00E941B0181E00E94BE0082E089
:100750000E941B0183E00E94BE0083E08093B901E8
:1007600029C08091BA0118169CF00E9467006DE9BB
:1007700071E082E00E94EE0081E00E941B0182E0B5
:100780000E94BE0081E08093EE011092ED0112C044
:100790008091F201882371F48091EA01873051F44D
:1007A0008091B9018F5F8093B90187E08093F20156
:1007B0001092EA01000089819A810F900F90DF91D9
:1007C000CF910895CF93DF9300D0CDB7DEB79A8352
:1007D000898389819A818130910569F08230910500
:1007E00009F1892B61F584E18093BA0181E090E001
:1007F0009A83898324C08091ED01882321F484E1C8
:100800008093BA011CC08091EE01882331F480915D
:10081000BA0181508093BA0112C082E090E09A83BD
:1008200089830DC08091EE01882329F082E090E059
:100830009A83898303C084E18093BA01000089818F
:100840009A810F900F90DF91CF910895CF93DF930E
:1008500000D000D000D0CDB7DEB79E838D838091CD
:10086000ED01882379F081E00E947A029093BD0126
:100870008093BC0180E00E947A029093F101809302
:10088000F0010EC084EF91E09093F1018093F001AC
:100890008091F0019091F1019093BD018093BC0192
:1008A0008D819E818230910509F43EC1833091058E
:1008B0002CF4009779F00197B9F058C18430910574
:1008C00009F410C1843091050CF43FC1059709F477
:1008D0001AC14CC181E090E09E838D8387E08093B4
:1008E000F2011092EA0142C18091BC019091BD01D8
:1008F000883C9105B0F58091F201873090F58091A8
:10090000B901282F30E08091EA01882F90E0220F72
:10091000331F220F331F220F331F820F931F855D5A
:100920009E4FFC01808189838981882F90E02091EE
:10093000F201222F30E02F5F3F4F02C0959587953F
:100940002A95E2F781709927892B09F0C3C084E0CA
:1009500090E09E838D838091F2018F5F8093F201FE
:10096000B9C08091BC019091BD0183359340B0F135
:100970008091F201882391F18091B901282F30E014
:100980008091EA01882F90E0220F331F220F331F3E
:10099000220F331F820F931F855D9E4FFC018081C4
:1009A0008A838A81882F90E02091F201222F30E003
:1009B0002150310902C0959587952A95E2F78170FB
:1009C0009927892B09F088C085E090E09E838D836C
:1009D0008091F20181508093F2017EC08091F001FC
:1009E0009091F101883C9105A8F58091EA01882356
:1009F00089F18091B901282F30E08091EA01882F98
:100A000090E00197220F331F220F331F220F331F55
:100A1000820F931F855D9E4FFC0180818B838B81AC
:100A2000882F90E02091F201222F30E002C09595AE
:100A300087952A95E2F781709927892B09F04EC096
:100A400082E090E09E838D838091EA0181508093C3
:100A5000EA0144C08091F0019091F1018335934007
:100A6000A0F18091EA01873080F58091B901282FAB
:100A700030E08091EA01882F90E00196220F331F29
:100A8000220F331F220F331F820F931F855D9E4F4E
:100A9000FC0180818C838C81882F90E02091F20171
:100AA000222F30E002C0959587952A95E2F7817054
:100AB0009927892BA9F483E090E09E838D83809110
:100AC000EA018F5F8093EA010BC081E090E09E8392
:100AD0008D834CC000004AC0000048C0000046C0E2
:100AE000000044C08091BC019091BD01883C9105FB
:100AF00028F484E090E09E838D8338C081E090E00C
:100B00009E838D8333C08091BC019091BD0183355C
:100B1000934028F085E090E09E838D8327C081E09C
:100B200090E09E838D8322C08091F0019091F1012D
:100B3000883C910528F482E090E09E838D8316C066
:100B400081E090E09E838D8311C08091F0019091AF
:100B5000F1018335934028F083E090E09E838D83FC
:100B600004C081E090E09E838D8300008D819E8192
:100B700026960FB6F894DEBF0FBECDBFDF91CF91A2
:100B80000895CF93DF9300D000D01F92CDB7DEB78A
:100B90009D838C839091EA018091BB01981769F441
:100BA0008091F201282F30E081E090E002C0880FB0
:100BB000991F2A95E2F7898301C01982898180955E
:100BC00089831A8232C08981882F90E081709927A9
:100BD000892B51F085E290E025E230E0F901208197
:100BE0002160FC01208309C085E290E025E230E02D
:100BF000F90120812E7FFC01208385E290E025E22F
:100C000030E0F90120812460FC01208385E290E03E
:100C100025E230E0F90120812B7FFC0120838981CE
:100C2000869589838A818F5F8A838A81883058F28A
:100C30008091B901282F30E08091BB01882F90E08E
:100C4000220F331F220F331F220F331F820F931FD8
:100C5000855D9E4FFC018081809589831B8232C017
:100C60008981882F90E081709927892B51F085E246
:100C700090E025E230E0F90120812160FC01208331
:100C800009C085E290E025E230E0F90120812E7F65
:100C9000FC01208385E290E025E230E0F90120812B
:100CA0002460FC01208385E290E025E230E0F90138
:100CB00020812B7FFC0120838981869589838B810C
:100CC0008F5F8B838B81883058F28BE290E020918C
:100CD000BB01422F50E021E030E002C0220F331F61
:100CE0004A95E2F7FC01208385E290E025E230E0BE
:100CF000F90120812260FC01208385E290E025E259
:100D000030E0F90120812D7FFC0120838091BB011F
:100D10008F5F8093BB018091BB01883011F41092EA
:100D2000BB018C819D810F900F900F900F900F90C1
:100D3000DF91CF9108950F931F93CF93DF9300D04E
:100D400000D01F92CDB7DEB781E290E020EFFC012A
:100D5000208382E290E02FE0FC01208384E290E097
:100D60002FEFFC01208385E290E0FC01108287E2F6
:100D700090E02FEFFC01208388E290E0FC011082DC
:100D80008AE290E02FEFFC0120838BE290E0FC01EF
:100D9000108282E090E0A0E0B0E08A839B83AC8385
:100DA000BD830E948B018A819B81AC81BD81BC0186
:100DB000CD010E943B020E9472000E9498020E9494
:100DC00067000E94690219828981282F30E04BE078
:100DD000429FC001439F900D112482549E4FFC01FD
:100DE00010828981282F30E04BE0429FC001439F51
:100DF000900D11249C0121543E4F84E690E0A0E028
:100E0000B0E0F90180839183A283B3838981482F65
:100E100050E08981282F30E06BE0629FC001639F22
:100E2000900D112481549E4FFC0180819181A281FB
:100E3000B3816BE0649F9001659F300D11242D53A9
:100E40003E4FF90180839183A283B3838981282F48
:100E500030E04BE0429FC001439F900D1124895325
:100E60009E4F2AE033E0FC013183208389818F5F2C
:100E700089838981282F30E04BE0429FC001439F46
:100E8000900D112482549E4FFC0110828981282FDD
:100E900030E04BE0429FC001439F900D11249C0124
:100EA00021543E4F88EE93E0A0E0B0E0F90180834A
:100EB0009183A283B3838981482F50E08981282FB1
:100EC00030E06BE0629FC001639F900D112481545C
:100ED0009E4FFC0180819181A281B3816BE0649F70
:100EE0009001659F300D11242D533E4FF9018083F1
:100EF0009183A283B3838981282F30E04BE0429F06
:100F0000C001439F900D112489539E4F22EE33E080
:100F1000FC013183208389818F5F89838981282F18
:100F200030E04BE0429FC001439F900D112482545A
:100F30009E4FFC0110828981282F30E04BE0429FB8
:100F4000C001439F900D11249C0121543E4F86E91E
:100F500090E0A0E0B0E0F90180839183A283B383A5
:100F60008981482F50E08981282F30E06BE0629F13
:100F7000C001639F900D112481549E4FFC0180811C
:100F80009181A281B3816BE0649F9001659F300DD8
:100F900011242D533E4FF90180839183A283B383A3
:100FA0008981282F30E04BE0429FC001439F900D84
:100FB000112489539E4F26E234E0FC0131832083C3
:100FC00089818F5F89838981282F30E04BE0429FA0
:100FD000C001439F900D112482549E4FFC0110824A
:100FE0008981282F30E04BE0429FC001439F900D44
:100FF00011249C0121543E4F8A819B81AC81BD818B
:10100000F90180839183A283B3838981482F50E0C3
:101010008981282F30E06BE0629FC001639F900DB3
:10102000112481549E4FFC0180819181A281B38162
:101030006BE0649F9001659F300D11242D533E4F4E
:10104000F90180839183A283B3838981282F30E0C3
:101050004BE0429FC001439F900D112489539E4F46
:1010600021EC35E0FC013183208319828EC0898117
:10107000282F30E04BE0429FC001439F900D112488
:101080008D539E4FFC0120813181428153818981A2
:10109000682F70E0EBE0E69FC001E79F900D112400
:1010A00081549E4FFC0180819181A281B3812817D8
:1010B00039074A075B07F0F18981082F10E0898121
:1010C000282F30E04BE0429FC001439F900D112438
:1010D00089539E4FFC01208131818981482F50E046
:1010E0006BE0649FC001659F900D112482549E4F58
:1010F000FC018081082E000C990BF9010995382F0D
:101100002BE0209FC001219F900D112482549E4FFF
:10111000FC0130838981282F30E04BE0429FC001E1
:10112000439F900D11248D539E4FFC01108211821C
:10113000128213828981682F70E08981282F30E024
:101140004BE0429FC001439F900D11248D539E4F51
:10115000FC0120813181428153818A819B81AC8154
:10116000BD81820F931FA41FB51F4BE0469F9001C6
:10117000479F300D11242D533E4FF90180839183F9
:10118000A283B38389818F5F898380912A019981AA
:10119000981708F46CCF00008091B4018823E1F324
:1011A0001092B40162CFF999FECF92BD81BDF89A39
:1011B000992780B50895262FF999FECF1FBA92BDC1
:1011C00081BD20BD0FB6F894FA9AF99A0FBE019628
:0611D0000895F894FFCF22
:1011D6000E1F11111F1F1F1B000A0A00110E00000F
:1011E60003060C0F1E060C1800000002000000008B
:1011F6006201000000000100000004017514D61011
:1012060057515C086A2AEE08E24F000024242400A5
:10121600423C000024242400423C000E1F11111FF2
:101226001F1F1B000A0A000E11000003060C0F1EEA
:10123600060C184C3A53746172742C523A52657308
:1012460065742020486967682053636F72653A2089
:1012560000596F752057696E2121202020202020FB
:10126600486967682053636F72653A2000596F7545
:10127600204C6F736521202020202020523A526591
:041286007365740018
:00000001FF
