:100000000C9446000C9465000C9465000C946500FB
:100010000C9465000C9465000C9465000C946500CC
:100020000C9465000C9465000C9465000C946500BC
:100030000C9465000C94D9010C9465000C94650037
:100040000C9465000C9465000C9465000C9465009C
:100050000C9465000C9465000C9465000C9465008C
:100060000C9465000C9465000C9465000C9465007C
:100070000C9465000C9465000C9465000C9465006C
:100080000C9465000C9465000C94650011241FBE4F
:10009000CFEFD0E4DEBFCDBF11E0A0E0B1E0ECE8EF
:1000A000FAE000E00BBF02C007900D92AA34B1073E
:1000B000D9F721E0AAE4B1E001C01D92AD36B20744
:1000C000E1F70E948B040C9444050C940000CF933C
:1000D000DF93CDB7DEB781E00E948E000000DF9194
:1000E000CF910895CF93DF93CDB7DEB784E690E04C
:1000F0000E94320188E30E948E0086E00E948E00FA
:100100008FE00E948E0081E00E948E008AE090E0E5
:100110000E9432010000DF91CF910895CF93DF93C9
:100120001F92CDB7DEB789838BE290E02BE230E0FF
:10013000F90120812F7BFC01208388E290E0298156
:10014000FC0120838BE290E02BE230E0F90120817A
:100150002068FC01208300008BE290E02BE230E07D
:10016000F90120812F77FC01208382E090E00E943A
:10017000320100000F90DF91CF910895CF93DF936C
:100180001F92CDB7DEB789838BE290E02BE230E09F
:10019000F90120812064FC01208388E290E029811C
:1001A000FC0120838BE290E02BE230E0F90120811A
:1001B0002068FC01208300008BE290E02BE230E01D
:1001C000F90120812F77FC01208381E090E00E94DB
:1001D000320100000F90DF91CF910895CF93DF930C
:1001E00000D000D0CDB7DEB78A837C836B830E94BA
:1001F00067008A81898311C0898191E0980F998372
:100200000E941B018B819C819C012F5F3F4F3C838F
:100210002B83FC0180810E94BE008B819C81FC01AC
:100220008081882349F700000F900F900F900F9066
:10023000DF91CF910895CF93DF931F92CDB7DEB7B3
:1002400089838981813128F4898181580E948E00B7
:1002500004C0898181550E948E0000000F90DF91BB
:10026000CF910895CF93DF9300D000D000D0CDB7C9
:10027000DEB79E838D831A82198213C01C821B8273
:1002800006C000008B819C8101969C838B838B81AF
:100290009C8187309340ACF389819A8101969A833F
:1002A000898329813A818D819E812817390734F30A
:1002B000000026960FB6F894DEBF0FBECDBFDF91CB
:1002C000CF910895CF93DF9300D01F92CDB7DEB7C3
:1002D00089837B836A8389818A3031F48A819B8117
:1002E000BC018DE00E94620180EC90E0FC01808105
:1002F000882F90E080729927892BB1F386EC90E0EB
:100300002981FC01208380E090E00F900F900F90F6
:10031000DF91CF910895CF93DF93CDB7DEB781E81A
:1003200090E02BE0FC01208388E890E02DE730E0AE
:10033000FC01318320838FE690E022E0FC012083E2
:1003400084E890E0FC011182108280912601909156
:100350002701A0912801B091290180934B0190932E
:100360004C01A0934D01B0934E018FE590E02FE535
:1003700030E0F90120812068FC0120830000DF913A
:10038000CF910895CF93DF93CDB7DEB781E890E0AA
:10039000FC0110820000DF91CF910895CF93DF938D
:1003A000CDB7DEB781E080934A010000DF91CF91A5
:1003B00008951F920F9200905F000F9211240090F9
:1003C0005B000F922F933F934F935F936F937F93B5
:1003D0008F939F93AF93BF93EF93FF93CF93DF934D
:1003E000CDB7DEB780914B0190914C01A0914D01AA
:1003F000B0914E010197A109B10980934B019093EF
:100400004C01A0934D01B0934E0180914B0190910E
:100410004C01A0914D01B0914E01892B8A2B8B2B61
:1004200091F40E94CE018091260190912701A09124
:100430002801B091290180934B0190934C01A09326
:100440004D01B0934E010000DF91CF91FF91EF91EC
:10045000BF91AF919F918F917F916F915F914F91DC
:100460003F912F910F9000925B000F9000925F00E0
:100470000F901F901895CF93DF9300D000D0CDB789
:10048000DEB769837A838B839C8389819A81AB8170
:10049000BC818093260190932701A0932801B093FB
:1004A00029018091260190912701A0912801B09106
:1004B000290180934B0190934C01A0934D01B0937F
:1004C0004E0100000F900F900F900F90DF91CF9191
:1004D0000895CF93DF9300D0CDB7DEB789836A83C9
:1004E0008A81282F30E081E090E002C0880F991FB8
:1004F0002A95E2F7982F898189230F900F90DF9139
:10050000CF910895CF93DF93CDB7DEB78AE790E020
:100510002AE730E0F9012081206EFC0120830000F1
:10052000DF91CF910895CF93DF9300D0CDB7DEB7A1
:100530008A838CE790E02A81FC012083198204C021
:10054000000089818F5F898389818E31C8F388E7B4
:1005500090E0FC01808191810F900F90DF91CF910D
:100560000895CF93DF931F92CDB7DEB78983000044
:100570008FE390E0FC018081882F90E082709927C2
:10058000892BB1F781E490E02FE530E0FC01318365
:10059000208380E490E02981FC0120838FE390E0B8
:1005A0002FE330E0F90120812460FC0120838FE3F8
:1005B00090E02FE330E0F90120812260FC012083EC
:1005C00000000F90DF91CF910895CF93DF93CDB7C7
:1005D000DEB700008FE390E0FC018081882F90E07F
:1005E00082709927892BB1F781E490E02FE530E004
:1005F000FC01318320838FE390E02FE330E0F901A9
:1006000020812160FC01208380E490E0FC01808156
:10061000DF91CF910895CF93DF9300D01F92CDB794
:10062000DEB781E090E09A8389832BC089819A812B
:100630000896880F880F880F0E948E001B8219C0B1
:1006400089819A819C01215031098B81882F90E00A
:10065000220F331F220F331F220F331F820F931FCE
:10066000855D9E4FFC0180810E94BE008B818F5F63
:100670008B838B81883020F389819A8101969A83BC
:10068000898389819A81049788F280E80E948E008C
:1006900000000F900F900F90DF91CF910895CF93AE
:1006A000DF93CDB7DEB7809167019091680181300B
:1006B0009105E1F08130910518F0029779F157C06A
:1006C00082E090E090936801809367018FE590E06D
:1006D0000E942E05809369019091690180914901E2
:1006E000891708F043C01092690140C080E290E091
:1006F000FC018081882F90E081709927892B39F443
:1007000081E090E0909368018093670130C082E0BF
:1007100090E0909368018093670129C080E290E0A7
:10072000FC018081882F90E081709927892BF9F452
:1007300081E090E090936801809367018091690166
:10074000882F90E0019620914901222F30E0B901D5
:100750000E94F7048093690180916901882F90E0DD
:10076000BC018FE590E00E94360501C0000000004A
:10077000DF91CF910895CF93DF9300D01F92CDB733
:10078000DEB781E00E9493029093500180934F0165
:1007900080E00E94930290936B0180936A0119821A
:1007A00080914F01909150018038914020F48981CF
:1007B000826089830AC080914F01909150018138F5
:1007C000924018F089818160898380916A019091BB
:1007D0006B018038914020F48981886089830AC048
:1007E00080916A0190916B018138924018F0898163
:1007F000846089831A823CC096E08A81292F281B55
:10080000822F0E941B0140914F01509150019A018B
:10081000ADECBCEC0E940B05969587959695879557
:1008200096958795880F991F9C01220F331F220FE1
:10083000331F820F931FFA01E81BF90BCF01805D74
:100840000E94BE0080914F01909150019C01ADEC3F
:10085000BCEC0E940B059695879596958795969585
:1008600087959093500180934F018A818F5F8A838F
:100870008A81843008F21B823CC090E18B81F92F81
:10088000F81B8F2F0E941B0140916A0150916B0150
:100890009A01ADECBCEC0E940B0596958795969558
:1008A000879596958795880F991F9C01220F331F76
:1008B000220F331F820F931F9A01281B390BC90186
:1008C000805D0E94BE0080916A0190916B019C0145
:1008D000ADECBCEC0E940B05969587959695879597
:1008E0009695879590936B0180936A018B818F5FBA
:1008F0008B838B81843008F280E20E941B0185E2A9
:1009000090E02981FC01208300000F900F900F9050
:10091000DF91CF910895CF93DF93CDB7DEB781E21A
:1009200090E0FC01108282E290E02FEFFC01208336
:1009300084E290E02FEFFC01208385E290E0FC014F
:10094000108287E290E02FEFFC01208388E290E0A4
:10095000FC0110828AE290E02FEFFC0120838BE201
:1009600090E0FC0110820E948B0168EC70E080E056
:1009700090E00E943B020E9472000E940B030E94C2
:10098000670081E10E941B0181E00E94BE0082E1BC
:100990000E941B0182E00E94BE0083E10E941B01B5
:1009A00083E00E94BE0081E00E941B0188E50E9456
:1009B000BE0082E00E941B018AE30E94BE008BE021
:1009C0000E941B0189E50E94BE008CE00E941B0171
:1009D0008AE30E94BE000E9482020E94BB030000C4
:1009E00080914A018823E1F310924A01F6CF97FBE8
:1009F000072E16F4009407D077FD09D00E941A053F
:100A000007FC05D03EF4909581959F4F0895709511
:100A100061957F4F0895A29FB001B39FC001A39F2E
:100A2000700D811D1124911DB29F700D811D112427
:100A3000911D0895AA1BBB1B51E107C0AA1FBB1F34
:100A4000A617B70710F0A61BB70B881F991F5A955A
:100A5000A9F780959095BC01CD010895F999FECF35
:100A600092BD81BDF89A992780B50895262FF999EE
:100A7000FECF1FBA92BD81BD20BD0FB6F894FA9A81
:0C0A8000F99A0FBE01960895F894FFCF7C
:100A8C000E1F11111F1F1F1B000A0A00110E000060
:100A9C0003060C0F1E060C180000000200000000DC
:100AAC0062010000000001000000020E1F11111F66
:100ABC001F1F1B000A0A00110E000003060C0F1E5C
:0A0ACC00060C1841424344450106A0
:00000001FF
